{
  "_format": "hh-sol-artifact-1",
  "contractName": "Donation",
  "sourceName": "contracts/Donation.sol",
  "abi": [
    {
      "anonymous": false,
      "inputs": [
        {
          "indexed": false,
          "internalType": "uint256",
          "name": "id",
          "type": "uint256"
        },
        {
          "indexed": false,
          "internalType": "string",
          "name": "hash",
          "type": "string"
        },
        {
          "indexed": false,
          "internalType": "string",
          "name": "description",
          "type": "string"
        },
        {
          "indexed": false,
          "internalType": "uint256",
          "name": "donationAmount",
          "type": "uint256"
        },
        {
          "indexed": false,
          "internalType": "address",
          "name": "author",
          "type": "address"
        }
      ],
      "name": "DonateImage",
      "type": "event"
    },
    {
      "anonymous": false,
      "inputs": [
        {
          "indexed": false,
          "internalType": "uint256",
          "name": "id",
          "type": "uint256"
        },
        {
          "indexed": false,
          "internalType": "string",
          "name": "hash",
          "type": "string"
        },
        {
          "indexed": false,
          "internalType": "string",
          "name": "description",
          "type": "string"
        },
        {
          "indexed": false,
          "internalType": "uint256",
          "name": "donationAmount",
          "type": "uint256"
        },
        {
          "indexed": false,
          "internalType": "address",
          "name": "author",
          "type": "address"
        }
      ],
      "name": "ImageCreated",
      "type": "event"
    },
    {
      "inputs": [
        {
          "internalType": "uint256",
          "name": "_id",
          "type": "uint256"
        }
      ],
      "name": "donateImageOwner",
      "outputs": [],
      "stateMutability": "payable",
      "type": "function"
    },
    {
      "inputs": [],
      "name": "imageCount",
      "outputs": [
        {
          "internalType": "uint256",
          "name": "",
          "type": "uint256"
        }
      ],
      "stateMutability": "view",
      "type": "function"
    },
    {
      "inputs": [
        {
          "internalType": "uint256",
          "name": "",
          "type": "uint256"
        }
      ],
      "name": "images",
      "outputs": [
        {
          "internalType": "uint256",
          "name": "id",
          "type": "uint256"
        },
        {
          "internalType": "string",
          "name": "hash",
          "type": "string"
        },
        {
          "internalType": "string",
          "name": "description",
          "type": "string"
        },
        {
          "internalType": "uint256",
          "name": "donationAmount",
          "type": "uint256"
        },
        {
          "internalType": "address payable",
          "name": "author",
          "type": "address"
        }
      ],
      "stateMutability": "view",
      "type": "function"
    },
    {
      "inputs": [
        {
          "internalType": "string",
          "name": "_imgHash",
          "type": "string"
        },
        {
          "internalType": "string",
          "name": "_description",
          "type": "string"
        }
      ],
      "name": "uploadImage",
      "outputs": [],
      "stateMutability": "nonpayable",
      "type": "function"
    }
  ],
  "bytecode": "0x60806040526000805534801561001457600080fd5b50610f7e806100246000396000f3fe60806040526004361061003f5760003560e01c80635da540d514610044578063848564821461006057806392053b63146100a1578063a91b8314146100cc575b600080fd5b61005e60048036038101906100599190610716565b6100f5565b005b34801561006c57600080fd5b5061008760048036038101906100829190610716565b6103d0565b604051610098959493929190610823565b60405180910390f35b3480156100ad57600080fd5b506100b6610536565b6040516100c39190610884565b60405180910390f35b3480156100d857600080fd5b506100f360048036038101906100ee91906109d4565b61053c565b005b60008111801561010757506000548111155b61011057600080fd5b6000600160008381526020019081526020016000206040518060a00160405290816000820154815260200160018201805461014a90610a7b565b80601f016020809104026020016040519081016040528092919081815260200182805461017690610a7b565b80156101c35780601f10610198576101008083540402835291602001916101c3565b820191906000526020600020905b8154815290600101906020018083116101a657829003601f168201915b505050505081526020016002820180546101dc90610a7b565b80601f016020809104026020016040519081016040528092919081815260200182805461020890610a7b565b80156102555780601f1061022a57610100808354040283529160200191610255565b820191906000526020600020905b81548152906001019060200180831161023857829003601f168201915b50505050508152602001600382015481526020016004820160009054906101000a900473ffffffffffffffffffffffffffffffffffffffff1673ffffffffffffffffffffffffffffffffffffffff1673ffffffffffffffffffffffffffffffffffffffff168152505090506000816080015190503482606001516102d99190610adb565b82606001818152505081600160008581526020019081526020016000206000820151816000015560208201518160010190816103159190610cbb565b50604082015181600201908161032b9190610cbb565b506060820151816003015560808201518160040160006101000a81548173ffffffffffffffffffffffffffffffffffffffff021916908373ffffffffffffffffffffffffffffffffffffffff1602179055509050507f7e51198e5c0a884efdde742e04b2abf8d8f4e756f4e3a18864cebe06c6e03f7183836020015184604001518560600151856040516103c3959493929190610de2565b60405180910390a1505050565b60016020528060005260406000206000915090508060000154908060010180546103f990610a7b565b80601f016020809104026020016040519081016040528092919081815260200182805461042590610a7b565b80156104725780601f1061044757610100808354040283529160200191610472565b820191906000526020600020905b81548152906001019060200180831161045557829003601f168201915b50505050509080600201805461048790610a7b565b80601f01602080910402602001604051908101604052809291908181526020018280546104b390610a7b565b80156105005780601f106104d557610100808354040283529160200191610500565b820191906000526020600020905b8154815290600101906020018083116104e357829003601f168201915b5050505050908060030154908060040160009054906101000a900473ffffffffffffffffffffffffffffffffffffffff16905085565b60005481565b600082511161054a57600080fd5b600081511161055857600080fd5b600073ffffffffffffffffffffffffffffffffffffffff163373ffffffffffffffffffffffffffffffffffffffff160361059157600080fd5b6000808154809291906105a390610e43565b91905055506040518060a001604052806000548152602001838152602001828152602001600081526020013373ffffffffffffffffffffffffffffffffffffffff16815250600160008054815260200190815260200160002060008201518160000155602082015181600101908161061b9190610cbb565b5060408201518160020190816106319190610cbb565b506060820151816003015560808201518160040160006101000a81548173ffffffffffffffffffffffffffffffffffffffff021916908373ffffffffffffffffffffffffffffffffffffffff1602179055509050507fc1d8dfa99b3f84f95d3f0bc4a768addeb97b83b20aef7f9cb6729e126bafd2f960005483836000336040516106c0959493929190610ee7565b60405180910390a15050565b6000604051905090565b600080fd5b600080fd5b6000819050919050565b6106f3816106e0565b81146106fe57600080fd5b50565b600081359050610710816106ea565b92915050565b60006020828403121561072c5761072b6106d6565b5b600061073a84828501610701565b91505092915050565b61074c816106e0565b82525050565b600081519050919050565b600082825260208201905092915050565b60005b8381101561078c578082015181840152602081019050610771565b60008484015250505050565b6000601f19601f8301169050919050565b60006107b482610752565b6107be818561075d565b93506107ce81856020860161076e565b6107d781610798565b840191505092915050565b600073ffffffffffffffffffffffffffffffffffffffff82169050919050565b600061080d826107e2565b9050919050565b61081d81610802565b82525050565b600060a0820190506108386000830188610743565b818103602083015261084a81876107a9565b9050818103604083015261085e81866107a9565b905061086d6060830185610743565b61087a6080830184610814565b9695505050505050565b60006020820190506108996000830184610743565b92915050565b600080fd5b600080fd5b7f4e487b7100000000000000000000000000000000000000000000000000000000600052604160045260246000fd5b6108e182610798565b810181811067ffffffffffffffff82111715610900576108ff6108a9565b5b80604052505050565b60006109136106cc565b905061091f82826108d8565b919050565b600067ffffffffffffffff82111561093f5761093e6108a9565b5b61094882610798565b9050602081019050919050565b82818337600083830152505050565b600061097761097284610924565b610909565b905082815260208101848484011115610993576109926108a4565b5b61099e848285610955565b509392505050565b600082601f8301126109bb576109ba61089f565b5b81356109cb848260208601610964565b91505092915050565b600080604083850312156109eb576109ea6106d6565b5b600083013567ffffffffffffffff811115610a0957610a086106db565b5b610a15858286016109a6565b925050602083013567ffffffffffffffff811115610a3657610a356106db565b5b610a42858286016109a6565b9150509250929050565b7f4e487b7100000000000000000000000000000000000000000000000000000000600052602260045260246000fd5b60006002820490506001821680610a9357607f821691505b602082108103610aa657610aa5610a4c565b5b50919050565b7f4e487b7100000000000000000000000000000000000000000000000000000000600052601160045260246000fd5b6000610ae6826106e0565b9150610af1836106e0565b9250828201905080821115610b0957610b08610aac565b5b92915050565b60008190508160005260206000209050919050565b60006020601f8301049050919050565b600082821b905092915050565b600060088302610b717fffffffffffffffffffffffffffffffffffffffffffffffffffffffffffffffff82610b34565b610b7b8683610b34565b95508019841693508086168417925050509392505050565b6000819050919050565b6000610bb8610bb3610bae846106e0565b610b93565b6106e0565b9050919050565b6000819050919050565b610bd283610b9d565b610be6610bde82610bbf565b848454610b41565b825550505050565b600090565b610bfb610bee565b610c06818484610bc9565b505050565b5b81811015610c2a57610c1f600082610bf3565b600181019050610c0c565b5050565b601f821115610c6f57610c4081610b0f565b610c4984610b24565b81016020851015610c58578190505b610c6c610c6485610b24565b830182610c0b565b50505b505050565b600082821c905092915050565b6000610c9260001984600802610c74565b1980831691505092915050565b6000610cab8383610c81565b9150826002028217905092915050565b610cc482610752565b67ffffffffffffffff811115610cdd57610cdc6108a9565b5b610ce78254610a7b565b610cf2828285610c2e565b600060209050601f831160018114610d255760008415610d13578287015190505b610d1d8582610c9f565b865550610d85565b601f198416610d3386610b0f565b60005b82811015610d5b57848901518255600182019150602085019450602081019050610d36565b86831015610d785784890151610d74601f891682610c81565b8355505b6001600288020188555050505b505050505050565b6000610da8610da3610d9e846107e2565b610b93565b6107e2565b9050919050565b6000610dba82610d8d565b9050919050565b6000610dcc82610daf565b9050919050565b610ddc81610dc1565b82525050565b600060a082019050610df76000830188610743565b8181036020830152610e0981876107a9565b90508181036040830152610e1d81866107a9565b9050610e2c6060830185610743565b610e396080830184610dd3565b9695505050505050565b6000610e4e826106e0565b91507fffffffffffffffffffffffffffffffffffffffffffffffffffffffffffffffff8203610e8057610e7f610aac565b5b600182019050919050565b6000819050919050565b6000610eb0610eab610ea684610e8b565b610b93565b6106e0565b9050919050565b610ec081610e95565b82525050565b6000610ed1826107e2565b9050919050565b610ee181610ec6565b82525050565b600060a082019050610efc6000830188610743565b8181036020830152610f0e81876107a9565b90508181036040830152610f2281866107a9565b9050610f316060830185610eb7565b610f3e6080830184610ed8565b969550505050505056fea2646970667358221220560a349b9db6768d9ecc253de2868b28aa5de318b3337823d26e4e9fa7d0372c64736f6c63430008110033",
  "linkReferences": {},
  "deployedLinkReferences": {}
}